{
	"contracts/artifacts/pricefeed.sol": {
		"MockPriceFeed": {
			"abi": [
				{
					"inputs": [
						{
							"internalType": "int256",
							"name": "_initialPrice",
							"type": "int256"
						}
					],
					"stateMutability": "nonpayable",
					"type": "constructor"
				},
				{
					"inputs": [],
					"name": "latestRoundData",
					"outputs": [
						{
							"internalType": "uint80",
							"name": "",
							"type": "uint80"
						},
						{
							"internalType": "int256",
							"name": "answer",
							"type": "int256"
						},
						{
							"internalType": "uint256",
							"name": "",
							"type": "uint256"
						},
						{
							"internalType": "uint256",
							"name": "",
							"type": "uint256"
						},
						{
							"internalType": "uint80",
							"name": "",
							"type": "uint80"
						}
					],
					"stateMutability": "view",
					"type": "function"
				},
				{
					"inputs": [
						{
							"internalType": "int256",
							"name": "_newPrice",
							"type": "int256"
						}
					],
					"name": "setPrice",
					"outputs": [],
					"stateMutability": "nonpayable",
					"type": "function"
				}
			],
			"devdoc": {
				"kind": "dev",
				"methods": {},
				"version": 1
			},
			"evm": {
				"assembly": "    /* \"contracts/artifacts/pricefeed.sol\":57:518  contract MockPriceFeed {... */\n  mstore(0x40, 0x80)\n    /* \"contracts/artifacts/pricefeed.sol\":113:185  constructor(int256 _initialPrice) {... */\n  callvalue\n  dup1\n  iszero\n  tag_1\n  jumpi\n  0x00\n  dup1\n  revert\ntag_1:\n  pop\n  mload(0x40)\n  sub(codesize, bytecodeSize)\n  dup1\n  bytecodeSize\n  dup4\n  codecopy\n  dup2\n  dup2\n  add\n  0x40\n  mstore\n  dup2\n  add\n  swap1\n  tag_2\n  swap2\n  swap1\n  tag_3\n  jump\t// in\ntag_2:\n    /* \"contracts/artifacts/pricefeed.sol\":165:178  _initialPrice */\n  dup1\n    /* \"contracts/artifacts/pricefeed.sol\":157:162  price */\n  0x00\n    /* \"contracts/artifacts/pricefeed.sol\":157:178  price = _initialPrice */\n  dup2\n  swap1\n  sstore\n  pop\n    /* \"contracts/artifacts/pricefeed.sol\":113:185  constructor(int256 _initialPrice) {... */\n  pop\n    /* \"contracts/artifacts/pricefeed.sol\":57:518  contract MockPriceFeed {... */\n  jump(tag_6)\n    /* \"#utility.yul\":88:205   */\ntag_8:\n    /* \"#utility.yul\":197:198   */\n  0x00\n    /* \"#utility.yul\":194:195   */\n  dup1\n    /* \"#utility.yul\":187:199   */\n  revert\n    /* \"#utility.yul\":334:410   */\ntag_10:\n    /* \"#utility.yul\":370:377   */\n  0x00\n    /* \"#utility.yul\":399:404   */\n  dup2\n    /* \"#utility.yul\":388:404   */\n  swap1\n  pop\n    /* \"#utility.yul\":334:410   */\n  swap2\n  swap1\n  pop\n  jump\t// out\n    /* \"#utility.yul\":416:536   */\ntag_11:\n    /* \"#utility.yul\":488:511   */\n  tag_19\n    /* \"#utility.yul\":505:510   */\n  dup2\n    /* \"#utility.yul\":488:511   */\n  tag_10\n  jump\t// in\ntag_19:\n    /* \"#utility.yul\":481:486   */\n  dup2\n    /* \"#utility.yul\":478:512   */\n  eq\n    /* \"#utility.yul\":468:530   */\n  tag_20\n  jumpi\n    /* \"#utility.yul\":526:527   */\n  0x00\n    /* \"#utility.yul\":523:524   */\n  dup1\n    /* \"#utility.yul\":516:528   */\n  revert\n    /* \"#utility.yul\":468:530   */\ntag_20:\n    /* \"#utility.yul\":416:536   */\n  pop\n  jump\t// out\n    /* \"#utility.yul\":542:683   */\ntag_12:\n    /* \"#utility.yul\":598:603   */\n  0x00\n    /* \"#utility.yul\":629:635   */\n  dup2\n    /* \"#utility.yul\":623:636   */\n  mload\n    /* \"#utility.yul\":614:636   */\n  swap1\n  pop\n    /* \"#utility.yul\":645:677   */\n  tag_22\n    /* \"#utility.yul\":671:676   */\n  dup2\n    /* \"#utility.yul\":645:677   */\n  tag_11\n  jump\t// in\ntag_22:\n    /* \"#utility.yul\":542:683   */\n  swap3\n  swap2\n  pop\n  pop\n  jump\t// out\n    /* \"#utility.yul\":689:1038   */\ntag_3:\n    /* \"#utility.yul\":758:764   */\n  0x00\n    /* \"#utility.yul\":807:809   */\n  0x20\n    /* \"#utility.yul\":795:804   */\n  dup3\n    /* \"#utility.yul\":786:793   */\n  dup5\n    /* \"#utility.yul\":782:805   */\n  sub\n    /* \"#utility.yul\":778:810   */\n  slt\n    /* \"#utility.yul\":775:894   */\n  iszero\n  tag_24\n  jumpi\n    /* \"#utility.yul\":813:892   */\n  tag_25\n  tag_8\n  jump\t// in\ntag_25:\n    /* \"#utility.yul\":775:894   */\ntag_24:\n    /* \"#utility.yul\":933:934   */\n  0x00\n    /* \"#utility.yul\":958:1021   */\n  tag_26\n    /* \"#utility.yul\":1013:1020   */\n  dup5\n    /* \"#utility.yul\":1004:1010   */\n  dup3\n    /* \"#utility.yul\":993:1002   */\n  dup6\n    /* \"#utility.yul\":989:1011   */\n  add\n    /* \"#utility.yul\":958:1021   */\n  tag_12\n  jump\t// in\ntag_26:\n    /* \"#utility.yul\":948:1021   */\n  swap2\n  pop\n    /* \"#utility.yul\":904:1031   */\n  pop\n    /* \"#utility.yul\":689:1038   */\n  swap3\n  swap2\n  pop\n  pop\n  jump\t// out\n    /* \"contracts/artifacts/pricefeed.sol\":57:518  contract MockPriceFeed {... */\ntag_6:\n  dataSize(sub_0)\n  dup1\n  dataOffset(sub_0)\n  0x00\n  codecopy\n  0x00\n  return\nstop\n\nsub_0: assembly {\n        /* \"contracts/artifacts/pricefeed.sol\":57:518  contract MockPriceFeed {... */\n      mstore(0x40, 0x80)\n      callvalue\n      dup1\n      iszero\n      tag_1\n      jumpi\n      0x00\n      dup1\n      revert\n    tag_1:\n      pop\n      jumpi(tag_2, lt(calldatasize, 0x04))\n      shr(0xe0, calldataload(0x00))\n      dup1\n      0xf7a30806\n      eq\n      tag_3\n      jumpi\n      dup1\n      0xfeaf968c\n      eq\n      tag_4\n      jumpi\n    tag_2:\n      0x00\n      dup1\n      revert\n        /* \"contracts/artifacts/pricefeed.sol\":437:516  function setPrice(int256 _newPrice) external {... */\n    tag_3:\n      tag_5\n      0x04\n      dup1\n      calldatasize\n      sub\n      dup2\n      add\n      swap1\n      tag_6\n      swap2\n      swap1\n      tag_7\n      jump\t// in\n    tag_6:\n      tag_8\n      jump\t// in\n    tag_5:\n      stop\n        /* \"contracts/artifacts/pricefeed.sol\":191:431  function latestRoundData()... */\n    tag_4:\n      tag_9\n      tag_10\n      jump\t// in\n    tag_9:\n      mload(0x40)\n      tag_11\n      swap6\n      swap5\n      swap4\n      swap3\n      swap2\n      swap1\n      tag_12\n      jump\t// in\n    tag_11:\n      mload(0x40)\n      dup1\n      swap2\n      sub\n      swap1\n      return\n        /* \"contracts/artifacts/pricefeed.sol\":437:516  function setPrice(int256 _newPrice) external {... */\n    tag_8:\n        /* \"contracts/artifacts/pricefeed.sol\":500:509  _newPrice */\n      dup1\n        /* \"contracts/artifacts/pricefeed.sol\":492:497  price */\n      0x00\n        /* \"contracts/artifacts/pricefeed.sol\":492:509  price = _newPrice */\n      dup2\n      swap1\n      sstore\n      pop\n        /* \"contracts/artifacts/pricefeed.sol\":437:516  function setPrice(int256 _newPrice) external {... */\n      pop\n      jump\t// out\n        /* \"contracts/artifacts/pricefeed.sol\":191:431  function latestRoundData()... */\n    tag_10:\n        /* \"contracts/artifacts/pricefeed.sol\":278:284  uint80 */\n      0x00\n        /* \"contracts/artifacts/pricefeed.sol\":298:311  int256 answer */\n      dup1\n        /* \"contracts/artifacts/pricefeed.sol\":325:332  uint256 */\n      0x00\n        /* \"contracts/artifacts/pricefeed.sol\":346:353  uint256 */\n      dup1\n        /* \"contracts/artifacts/pricefeed.sol\":367:373  uint80 */\n      0x00\n        /* \"contracts/artifacts/pricefeed.sol\":406:407  0 */\n      dup1\n        /* \"contracts/artifacts/pricefeed.sol\":409:414  price */\n      sload(0x00)\n        /* \"contracts/artifacts/pricefeed.sol\":416:417  0 */\n      0x00\n        /* \"contracts/artifacts/pricefeed.sol\":419:420  0 */\n      dup1\n        /* \"contracts/artifacts/pricefeed.sol\":422:423  0 */\n      0x00\n        /* \"contracts/artifacts/pricefeed.sol\":398:424  return (0, price, 0, 0, 0) */\n      swap5\n      pop\n      swap5\n      pop\n      swap5\n      pop\n      swap5\n      pop\n      swap5\n      pop\n        /* \"contracts/artifacts/pricefeed.sol\":191:431  function latestRoundData()... */\n      swap1\n      swap2\n      swap3\n      swap4\n      swap5\n      jump\t// out\n        /* \"#utility.yul\":88:205   */\n    tag_16:\n        /* \"#utility.yul\":197:198   */\n      0x00\n        /* \"#utility.yul\":194:195   */\n      dup1\n        /* \"#utility.yul\":187:199   */\n      revert\n        /* \"#utility.yul\":334:410   */\n    tag_18:\n        /* \"#utility.yul\":370:377   */\n      0x00\n        /* \"#utility.yul\":399:404   */\n      dup2\n        /* \"#utility.yul\":388:404   */\n      swap1\n      pop\n        /* \"#utility.yul\":334:410   */\n      swap2\n      swap1\n      pop\n      jump\t// out\n        /* \"#utility.yul\":416:536   */\n    tag_19:\n        /* \"#utility.yul\":488:511   */\n      tag_32\n        /* \"#utility.yul\":505:510   */\n      dup2\n        /* \"#utility.yul\":488:511   */\n      tag_18\n      jump\t// in\n    tag_32:\n        /* \"#utility.yul\":481:486   */\n      dup2\n        /* \"#utility.yul\":478:512   */\n      eq\n        /* \"#utility.yul\":468:530   */\n      tag_33\n      jumpi\n        /* \"#utility.yul\":526:527   */\n      0x00\n        /* \"#utility.yul\":523:524   */\n      dup1\n        /* \"#utility.yul\":516:528   */\n      revert\n        /* \"#utility.yul\":468:530   */\n    tag_33:\n        /* \"#utility.yul\":416:536   */\n      pop\n      jump\t// out\n        /* \"#utility.yul\":542:679   */\n    tag_20:\n        /* \"#utility.yul\":587:592   */\n      0x00\n        /* \"#utility.yul\":625:631   */\n      dup2\n        /* \"#utility.yul\":612:632   */\n      calldataload\n        /* \"#utility.yul\":603:632   */\n      swap1\n      pop\n        /* \"#utility.yul\":641:673   */\n      tag_35\n        /* \"#utility.yul\":667:672   */\n      dup2\n        /* \"#utility.yul\":641:673   */\n      tag_19\n      jump\t// in\n    tag_35:\n        /* \"#utility.yul\":542:679   */\n      swap3\n      swap2\n      pop\n      pop\n      jump\t// out\n        /* \"#utility.yul\":685:1012   */\n    tag_7:\n        /* \"#utility.yul\":743:749   */\n      0x00\n        /* \"#utility.yul\":792:794   */\n      0x20\n        /* \"#utility.yul\":780:789   */\n      dup3\n        /* \"#utility.yul\":771:778   */\n      dup5\n        /* \"#utility.yul\":767:790   */\n      sub\n        /* \"#utility.yul\":763:795   */\n      slt\n        /* \"#utility.yul\":760:879   */\n      iszero\n      tag_37\n      jumpi\n        /* \"#utility.yul\":798:877   */\n      tag_38\n      tag_16\n      jump\t// in\n    tag_38:\n        /* \"#utility.yul\":760:879   */\n    tag_37:\n        /* \"#utility.yul\":918:919   */\n      0x00\n        /* \"#utility.yul\":943:995   */\n      tag_39\n        /* \"#utility.yul\":987:994   */\n      dup5\n        /* \"#utility.yul\":978:984   */\n      dup3\n        /* \"#utility.yul\":967:976   */\n      dup6\n        /* \"#utility.yul\":963:985   */\n      add\n        /* \"#utility.yul\":943:995   */\n      tag_20\n      jump\t// in\n    tag_39:\n        /* \"#utility.yul\":933:995   */\n      swap2\n      pop\n        /* \"#utility.yul\":889:1005   */\n      pop\n        /* \"#utility.yul\":685:1012   */\n      swap3\n      swap2\n      pop\n      pop\n      jump\t// out\n        /* \"#utility.yul\":1018:1123   */\n    tag_21:\n        /* \"#utility.yul\":1054:1061   */\n      0x00\n        /* \"#utility.yul\":1094:1116   */\n      0xffffffffffffffffffff\n        /* \"#utility.yul\":1087:1092   */\n      dup3\n        /* \"#utility.yul\":1083:1117   */\n      and\n        /* \"#utility.yul\":1072:1117   */\n      swap1\n      pop\n        /* \"#utility.yul\":1018:1123   */\n      swap2\n      swap1\n      pop\n      jump\t// out\n        /* \"#utility.yul\":1129:1244   */\n    tag_22:\n        /* \"#utility.yul\":1214:1237   */\n      tag_42\n        /* \"#utility.yul\":1231:1236   */\n      dup2\n        /* \"#utility.yul\":1214:1237   */\n      tag_21\n      jump\t// in\n    tag_42:\n        /* \"#utility.yul\":1209:1212   */\n      dup3\n        /* \"#utility.yul\":1202:1238   */\n      mstore\n        /* \"#utility.yul\":1129:1244   */\n      pop\n      pop\n      jump\t// out\n        /* \"#utility.yul\":1250:1365   */\n    tag_23:\n        /* \"#utility.yul\":1335:1358   */\n      tag_44\n        /* \"#utility.yul\":1352:1357   */\n      dup2\n        /* \"#utility.yul\":1335:1358   */\n      tag_18\n      jump\t// in\n    tag_44:\n        /* \"#utility.yul\":1330:1333   */\n      dup3\n        /* \"#utility.yul\":1323:1359   */\n      mstore\n        /* \"#utility.yul\":1250:1365   */\n      pop\n      pop\n      jump\t// out\n        /* \"#utility.yul\":1371:1448   */\n    tag_24:\n        /* \"#utility.yul\":1408:1415   */\n      0x00\n        /* \"#utility.yul\":1437:1442   */\n      dup2\n        /* \"#utility.yul\":1426:1442   */\n      swap1\n      pop\n        /* \"#utility.yul\":1371:1448   */\n      swap2\n      swap1\n      pop\n      jump\t// out\n        /* \"#utility.yul\":1454:1572   */\n    tag_25:\n        /* \"#utility.yul\":1541:1565   */\n      tag_47\n        /* \"#utility.yul\":1559:1564   */\n      dup2\n        /* \"#utility.yul\":1541:1565   */\n      tag_24\n      jump\t// in\n    tag_47:\n        /* \"#utility.yul\":1536:1539   */\n      dup3\n        /* \"#utility.yul\":1529:1566   */\n      mstore\n        /* \"#utility.yul\":1454:1572   */\n      pop\n      pop\n      jump\t// out\n        /* \"#utility.yul\":1578:2230   */\n    tag_12:\n        /* \"#utility.yul\":1777:1781   */\n      0x00\n        /* \"#utility.yul\":1815:1818   */\n      0xa0\n        /* \"#utility.yul\":1804:1813   */\n      dup3\n        /* \"#utility.yul\":1800:1819   */\n      add\n        /* \"#utility.yul\":1792:1819   */\n      swap1\n      pop\n        /* \"#utility.yul\":1829:1898   */\n      tag_49\n        /* \"#utility.yul\":1895:1896   */\n      0x00\n        /* \"#utility.yul\":1884:1893   */\n      dup4\n        /* \"#utility.yul\":1880:1897   */\n      add\n        /* \"#utility.yul\":1871:1877   */\n      dup9\n        /* \"#utility.yul\":1829:1898   */\n      tag_22\n      jump\t// in\n    tag_49:\n        /* \"#utility.yul\":1908:1978   */\n      tag_50\n        /* \"#utility.yul\":1974:1976   */\n      0x20\n        /* \"#utility.yul\":1963:1972   */\n      dup4\n        /* \"#utility.yul\":1959:1977   */\n      add\n        /* \"#utility.yul\":1950:1956   */\n      dup8\n        /* \"#utility.yul\":1908:1978   */\n      tag_23\n      jump\t// in\n    tag_50:\n        /* \"#utility.yul\":1988:2060   */\n      tag_51\n        /* \"#utility.yul\":2056:2058   */\n      0x40\n        /* \"#utility.yul\":2045:2054   */\n      dup4\n        /* \"#utility.yul\":2041:2059   */\n      add\n        /* \"#utility.yul\":2032:2038   */\n      dup7\n        /* \"#utility.yul\":1988:2060   */\n      tag_25\n      jump\t// in\n    tag_51:\n        /* \"#utility.yul\":2070:2142   */\n      tag_52\n        /* \"#utility.yul\":2138:2140   */\n      0x60\n        /* \"#utility.yul\":2127:2136   */\n      dup4\n        /* \"#utility.yul\":2123:2141   */\n      add\n        /* \"#utility.yul\":2114:2120   */\n      dup6\n        /* \"#utility.yul\":2070:2142   */\n      tag_25\n      jump\t// in\n    tag_52:\n        /* \"#utility.yul\":2152:2223   */\n      tag_53\n        /* \"#utility.yul\":2218:2221   */\n      0x80\n        /* \"#utility.yul\":2207:2216   */\n      dup4\n        /* \"#utility.yul\":2203:2222   */\n      add\n        /* \"#utility.yul\":2194:2200   */\n      dup5\n        /* \"#utility.yul\":2152:2223   */\n      tag_22\n      jump\t// in\n    tag_53:\n        /* \"#utility.yul\":1578:2230   */\n      swap7\n      swap6\n      pop\n      pop\n      pop\n      pop\n      pop\n      pop\n      jump\t// out\n\n    auxdata: 0xa2646970667358221220bcabf8b5466d302caac47b0703a1be25d9d4c6cecf99d8b2c788194abd9cf5f864736f6c63430008140033\n}\n",
				"bytecode": {
					"linkReferences": {},
					"object": "608060405234801561000f575f80fd5b5060405161027b38038061027b83398181016040528101906100319190610074565b805f819055505061009f565b5f80fd5b5f819050919050565b61005381610041565b811461005d575f80fd5b50565b5f8151905061006e8161004a565b92915050565b5f602082840312156100895761008861003d565b5b5f61009684828501610060565b91505092915050565b6101cf806100ac5f395ff3fe608060405234801561000f575f80fd5b5060043610610034575f3560e01c8063f7a3080614610038578063feaf968c14610054575b5f80fd5b610052600480360381019061004d91906100d2565b610076565b005b61005c61007f565b60405161006d959493929190610148565b60405180910390f35b805f8190555050565b5f805f805f805f545f805f945094509450945094509091929394565b5f80fd5b5f819050919050565b6100b18161009f565b81146100bb575f80fd5b50565b5f813590506100cc816100a8565b92915050565b5f602082840312156100e7576100e661009b565b5b5f6100f4848285016100be565b91505092915050565b5f69ffffffffffffffffffff82169050919050565b61011b816100fd565b82525050565b61012a8161009f565b82525050565b5f819050919050565b61014281610130565b82525050565b5f60a08201905061015b5f830188610112565b6101686020830187610121565b6101756040830186610139565b6101826060830185610139565b61018f6080830184610112565b969550505050505056fea2646970667358221220bcabf8b5466d302caac47b0703a1be25d9d4c6cecf99d8b2c788194abd9cf5f864736f6c63430008140033",
					"opcodes": "PUSH1 0x80 PUSH1 0x40 MSTORE CALLVALUE DUP1 ISZERO PUSH2 0xF JUMPI PUSH0 DUP1 REVERT JUMPDEST POP PUSH1 0x40 MLOAD PUSH2 0x27B CODESIZE SUB DUP1 PUSH2 0x27B DUP4 CODECOPY DUP2 DUP2 ADD PUSH1 0x40 MSTORE DUP2 ADD SWAP1 PUSH2 0x31 SWAP2 SWAP1 PUSH2 0x74 JUMP JUMPDEST DUP1 PUSH0 DUP2 SWAP1 SSTORE POP POP PUSH2 0x9F JUMP JUMPDEST PUSH0 DUP1 REVERT JUMPDEST PUSH0 DUP2 SWAP1 POP SWAP2 SWAP1 POP JUMP JUMPDEST PUSH2 0x53 DUP2 PUSH2 0x41 JUMP JUMPDEST DUP2 EQ PUSH2 0x5D JUMPI PUSH0 DUP1 REVERT JUMPDEST POP JUMP JUMPDEST PUSH0 DUP2 MLOAD SWAP1 POP PUSH2 0x6E DUP2 PUSH2 0x4A JUMP JUMPDEST SWAP3 SWAP2 POP POP JUMP JUMPDEST PUSH0 PUSH1 0x20 DUP3 DUP5 SUB SLT ISZERO PUSH2 0x89 JUMPI PUSH2 0x88 PUSH2 0x3D JUMP JUMPDEST JUMPDEST PUSH0 PUSH2 0x96 DUP5 DUP3 DUP6 ADD PUSH2 0x60 JUMP JUMPDEST SWAP2 POP POP SWAP3 SWAP2 POP POP JUMP JUMPDEST PUSH2 0x1CF DUP1 PUSH2 0xAC PUSH0 CODECOPY PUSH0 RETURN INVALID PUSH1 0x80 PUSH1 0x40 MSTORE CALLVALUE DUP1 ISZERO PUSH2 0xF JUMPI PUSH0 DUP1 REVERT JUMPDEST POP PUSH1 0x4 CALLDATASIZE LT PUSH2 0x34 JUMPI PUSH0 CALLDATALOAD PUSH1 0xE0 SHR DUP1 PUSH4 0xF7A30806 EQ PUSH2 0x38 JUMPI DUP1 PUSH4 0xFEAF968C EQ PUSH2 0x54 JUMPI JUMPDEST PUSH0 DUP1 REVERT JUMPDEST PUSH2 0x52 PUSH1 0x4 DUP1 CALLDATASIZE SUB DUP2 ADD SWAP1 PUSH2 0x4D SWAP2 SWAP1 PUSH2 0xD2 JUMP JUMPDEST PUSH2 0x76 JUMP JUMPDEST STOP JUMPDEST PUSH2 0x5C PUSH2 0x7F JUMP JUMPDEST PUSH1 0x40 MLOAD PUSH2 0x6D SWAP6 SWAP5 SWAP4 SWAP3 SWAP2 SWAP1 PUSH2 0x148 JUMP JUMPDEST PUSH1 0x40 MLOAD DUP1 SWAP2 SUB SWAP1 RETURN JUMPDEST DUP1 PUSH0 DUP2 SWAP1 SSTORE POP POP JUMP JUMPDEST PUSH0 DUP1 PUSH0 DUP1 PUSH0 DUP1 PUSH0 SLOAD PUSH0 DUP1 PUSH0 SWAP5 POP SWAP5 POP SWAP5 POP SWAP5 POP SWAP5 POP SWAP1 SWAP2 SWAP3 SWAP4 SWAP5 JUMP JUMPDEST PUSH0 DUP1 REVERT JUMPDEST PUSH0 DUP2 SWAP1 POP SWAP2 SWAP1 POP JUMP JUMPDEST PUSH2 0xB1 DUP2 PUSH2 0x9F JUMP JUMPDEST DUP2 EQ PUSH2 0xBB JUMPI PUSH0 DUP1 REVERT JUMPDEST POP JUMP JUMPDEST PUSH0 DUP2 CALLDATALOAD SWAP1 POP PUSH2 0xCC DUP2 PUSH2 0xA8 JUMP JUMPDEST SWAP3 SWAP2 POP POP JUMP JUMPDEST PUSH0 PUSH1 0x20 DUP3 DUP5 SUB SLT ISZERO PUSH2 0xE7 JUMPI PUSH2 0xE6 PUSH2 0x9B JUMP JUMPDEST JUMPDEST PUSH0 PUSH2 0xF4 DUP5 DUP3 DUP6 ADD PUSH2 0xBE JUMP JUMPDEST SWAP2 POP POP SWAP3 SWAP2 POP POP JUMP JUMPDEST PUSH0 PUSH10 0xFFFFFFFFFFFFFFFFFFFF DUP3 AND SWAP1 POP SWAP2 SWAP1 POP JUMP JUMPDEST PUSH2 0x11B DUP2 PUSH2 0xFD JUMP JUMPDEST DUP3 MSTORE POP POP JUMP JUMPDEST PUSH2 0x12A DUP2 PUSH2 0x9F JUMP JUMPDEST DUP3 MSTORE POP POP JUMP JUMPDEST PUSH0 DUP2 SWAP1 POP SWAP2 SWAP1 POP JUMP JUMPDEST PUSH2 0x142 DUP2 PUSH2 0x130 JUMP JUMPDEST DUP3 MSTORE POP POP JUMP JUMPDEST PUSH0 PUSH1 0xA0 DUP3 ADD SWAP1 POP PUSH2 0x15B PUSH0 DUP4 ADD DUP9 PUSH2 0x112 JUMP JUMPDEST PUSH2 0x168 PUSH1 0x20 DUP4 ADD DUP8 PUSH2 0x121 JUMP JUMPDEST PUSH2 0x175 PUSH1 0x40 DUP4 ADD DUP7 PUSH2 0x139 JUMP JUMPDEST PUSH2 0x182 PUSH1 0x60 DUP4 ADD DUP6 PUSH2 0x139 JUMP JUMPDEST PUSH2 0x18F PUSH1 0x80 DUP4 ADD DUP5 PUSH2 0x112 JUMP JUMPDEST SWAP7 SWAP6 POP POP POP POP POP POP JUMP INVALID LOG2 PUSH5 0x6970667358 0x22 SLT KECCAK256 0xBC 0xAB 0xF8 0xB5 CHAINID PUSH14 0x302CAAC47B0703A1BE25D9D4C6CE 0xCF SWAP10 0xD8 0xB2 0xC7 DUP9 NOT 0x4A 0xBD SWAP13 CREATE2 0xF8 PUSH5 0x736F6C6343 STOP ADDMOD EQ STOP CALLER "
				},
				"gasEstimates": {
					"creation": {
						"codeDepositCost": "92600",
						"executionCost": "infinite",
						"totalCost": "infinite"
					},
					"external": {
						"latestRoundData()": "infinite",
						"setPrice(int256)": "22492"
					}
				},
				"methodIdentifiers": {
					"latestRoundData()": "feaf968c",
					"setPrice(int256)": "f7a30806"
				}
			},
			"storageLayout": {
				"storage": [
					{
						"astId": 3,
						"contract": "contracts/artifacts/pricefeed.sol:MockPriceFeed",
						"label": "price",
						"offset": 0,
						"slot": "0",
						"type": "t_int256"
					}
				],
				"types": {
					"t_int256": {
						"encoding": "inplace",
						"label": "int256",
						"numberOfBytes": "32"
					}
				}
			},
			"userdoc": {
				"kind": "user",
				"methods": {},
				"version": 1
			}
		}
	}
}